:1000000000800020BD010000DD2D0000952D0000C6
:10001000952D0000952D0000952D0000952D0000D8
:10002000952D0000952D0000952D0000DD2D000080
:10003000DD2D0000952D00004147000045480000DF
:10004000DD2D0000DD2D0000DD2D0000DD2D000088
:10005000DD2D0000DD2D0000DD2D0000DD2D000078
:10006000DD2D0000DD2D0000DD2D0000DD2D000068
:10007000DD2D0000DD2D0000DD2D0000DD2D000058
:10008000DD2D0000DD2D0000DD2D0000DD2D000048
:10009000DD2D0000DD2D0000DD2D0000DD2D000038
:1000A0003928000045280000DD2D0000DD2D00006E
:1000B000DD2D0000DD2D0000DD2D0000DD2D000018
:1000C000DD2D0000DD2D0000DD2D0000DD2D000008
:1000D000DD2D0000DD2D0000DD2D0000DD2D0000F8
:1000E000DD2D0000DD2D0000DD2D0000DD2D0000E8
:1000F000DD2D0000754A0000DD2D0000A14B000041
:10010000DD2D0000CD4C0000DD2D0000DD2D0000B8
:10011000DD2D0000DD2D0000DD2D0000DD2D0000B7
:10012000DD2D0000DD2D0000DD2D0000DD2D0000A7
:10013000DD2D0000DD2D0000DD2D0000DD2D000097
:10014000DD2D0000DD2D0000DD2D0000DD2D000087
:10015000DD2D0000DD2D0000DD2D0000DD2D000077
:10016000DD2D0000A9350000DD2D0000DD2D000093
:10017000DD2D0000DD2D0000DD2D0000DD2D000057
:10018000DD2D0000DD2D0000DD2D0000DD2D000047
:10019000DD2D0000DD2D0000DD2D0000DD2D000037
:1001A000DD2D0000DD2D0000DD2D0000DD2D000027
:1001B000DD2D0000DD2D0000FD440000564B4CF20B
:1001C000205210B51A804DF628121A8000BF00BFC9
:1001D00002F008FE514B4FF010621A60504A9A60CC
:1001E000504ADA60504A136813F4807304D14F49BF
:1001F0000B604FF4A85313604D4B1A78110703D5C9
:100200001A7842F008021A704A4B4B492A221A7097
:100210004A4A4B4B8B4204D252F8040F43F8040B6A
:10022000F8E7484B484900228B4202D243F8042B9E
:10023000FAE74649464A002352F8230041F82300D2
:1002400001336F2BF8D1434B434A802103F8011B44
:100250009342FBD1414B3D4A1A60414B8A221A70AE
:10026000A3F5805324225A70A0221A709A7992071B
:10027000FCD59A79D406FCD43A4A937903F00C035E
:10028000082B384BF9D105221A7143225A719A79F9
:100290009006FCD5334A9179324B4906FBD5324A58
:1002A0004FF0817111600521516020221A709A79F6
:1002B00002F00C020C2AFAD12C4B2D4A1A602D4B5D
:1002C0002D4A1A6000225A60072243F8042C2B4A58
:1002D000C3F80C2D62B603F03FF8144B1B68DA0725
:1002E00005D5274802F0BEFE264B274A1A60274B49
:1002F0001B785B0609D5234C234B22689A4204D114
:100300001F4802F0AFFE0023236006F0A5FB02F0B9
:100310006FFD04F00BFBFEE70E200540308004402B
:10032000823F04000100002B10D0034014D0034092
:1003300002D0074000E00740F4D6FF1F04CC0300C2
:1003400020CBFF1FF4D6FF1F1442002000C6FF1F62
:100350000000000000E400E05FE400E008ED00E0E1
:1003600000500640004006404480044004800440A1
:10037000C010050014E000E03F190100000020203B
:1003800057A0B05B1CE00340A5C3945A00F007409F
:10039000FFFFFFFFFFFFFFFFFFFFFFFFFFFFFFFF6D
:1003A000FFFFFFFFFFFFFFFFFFFFFFFFFFFFFFFF5D
:1003B000FFFFFFFFFFFFFFFFFFFFFFFFFFFFFFFF4D
:1003C000FFFFFFFFFFFFFFFFFFFFFFFFFFFFFFFF3D
:1003D000FFFFFFFFFFFFFFFFFFFFFFFFFFFFFFFF2D
:1003E000FFFFFFFFFFFFFFFFFFFFFFFFFFFFFFFF1D
:1003F000FFFFFFFFFFFFFFFFFFFFFFFFFFFFFFFF0D
:10040000FFFFFFFFFFFFFFFFFFFFFFFFDEF9FFFF23
:1004100010B5054C237833B9044B13B10448AFF33E
:1004200000800123237010BDF4D6FF1F00000000E0
:1004300008CC0300084B10B51BB108490848AFF3BE
:1004400000800848036803B910BD074B002BFBD0A0
:10045000BDE81040184700BF00000000F8D6FF1F9D
:1004600008CC0300F4D6FF1F000000000021174B4A
:10047000036010B400F1180201240B4644720261BB
:100480000172C16000E0026942F82310427A013330
:100490009A42F8DC0E4B1A680AB914E01A465369FE
:1004A000002BFBD1506100230A4943614FF4807255
:1004B0008380C38083728361C3610362836201604E
:1004C000426210BC70471860EDE700BF64C70300CC
:1004D000E83F002070C70300F0B5846A2212012AA9
:1004E000A4EB02246ADD02F10045023DC16931F945
:1004F0001530022A4FEA45054FEA032E63D00D441A
:10050000B5F902301F02006A31F9125001388242F7
:100510004FEA4203B8BFC9184FEA0525B8BFB1F981
:1005200002604FF0560101FB04F14FEA212101F175
:100530005501B4BF36022E46D1F5807404FB04F297
:10054000121204FB02F2131203FB0EF3002C4FEA0B
:1005500023203ADB04EB440242F31702002A42DB79
:1005600002FB04F21312002BABBF03FB01F24B435F
:1005700013121B12002CBABF6242C2EB440404EBFC
:10058000440444F3170404FB01F401FB01F22412B8
:1005900001FB04F4121203FB07F3241201FB02F126
:1005A00004FB05F51B12091203442D1201FB06F191
:1005B00008122B44034443F30F20F0BDC169B1F985
:1005C00000304FEA032E77469DE7634203EB430E6C
:1005D000CEF1000E4EF31702002A04DB02FB03F3F8
:1005E0005B421B12BFE702FB04F31B12BBE700BF19
:1005F0002DE9F843C36963B3054603F03DFE814628
:1006000038B3D5F82080AC6A871C002609E0FFF7D4
:1006100063FF6B6A27F8020F01361C44802EAC6220
:100620000DD0B8EB242F2846F1DCC6F1800209F189
:100630000400520000EB4600002106F0FDFC2846B5
:100640004946002203F096FE4846BDE8F84303F011
:1006500067BEBDE8F88300BF10B5044618462262A5
:10066000E1614FF0874105F0E3FF4FF07C5105F069
:10067000D7FE06F0B9F900236062A36210BD00BF87
:100680000023C36103628362704700BF014B0122F4
:100690001A7070475C3B0020704700BF10B51021F6
:1006A000044604F04BF9204610BD00BF10B50446C7
:1006B00003F0DCFE204610BD002310B4104C417244
:1006C000026104600372C36041B1194600E002692F
:1006D00042F82310427A01339A42F8DC094B1A6837
:1006E0000AB90BE01A465369002BFBD15061002375
:1006F00043618380C380837210BC70471860F6E743
:1007000064C70300E83F002010B540214348444C33
:1007100003F082FD002002F047FA0D2002F06AFA91
:100720000021162002F0C2FD0021092002F0BEFDCA
:1007300003223C49092002F0D5FB2369042B47D052
:10074000394A44F823200133042B23614AD0374A25
:1007500044F823200133042B23614DD0344A44F85C
:1007600023200133042B236150D0324A44F8232044
:1007700001332361304B314945F260604FF48042D0
:1007800047F6A5349A61DA611A625A620C5272B65F
:1007900045F25C6045F25E6341F6991446F2676289
:1007A0000C52CA5262B6264A264B10784FF4803457
:1007B000002201219C61DA6102F078FD224B0221C6
:1007C000187802F073FD6420BDE8104002F074BD9B
:1007D0000F211E4803F01CFC1D4804F04FF823694C
:1007E000042BB4D10F21194803F012FC184804F06F
:1007F00045F82369042BB1D10F21144803F008FCFC
:10080000134804F03BF82369042BAED10F210F48A5
:1008100003F0FEFB0E4804F031F8ABE70082FF1F47
:10082000603B00208D060000643A0020903A0020D2
:10083000BC3A0020E83A00202C3A00208CD7FF1F59
:1008400084D7FF1F803B0020303B002084C703007B
:1008500004CEFF1F70B5044600F10C0630460D466D
:1008600000F036FBA3781A4643F3800363F341029A
:10087000A270304600F05CFB88B1A3786560DA07AF
:1008800043BF83F00402C2F3800262F3820343F0A9
:100890000403A370294609B16D1AA56070BD3046E6
:1008A00000F03CFB48B1A37813F0010204BF62F3EF
:1008B0008203A3700023636070BD6168EBE700BF33
:1008C000C37803F00302032A11D05A0706D513F0A8
:1008D000010109D08178007802F0D6BB13F0010144
:1008E00000780ED102F0CEBC007802F0CDBB426899
:1008F0008A42EAD203F0FE036FF34103C370DBB216
:10090000E3E7012102F0BEBC70B56B4B6B481B687E
:100910006B4D82B00193019C2146FFF7D1FF214628
:100920006848FFF797FF287B02F098F96B68C31AB5
:100930001033202B18D9686005F026FE4FF0645163
:1009400005F076FE2B7A06462BB101464FF07E501D
:1009500005F064FD06465C49304606F025F800289F
:100960003FD05A485A4BD8615A4D287B02F076F94D
:100970006B68C31A1033202B024624D9686005F037
:1009800003FE4FF0645105F053FE2B7A06462BB15F
:1009900001464FF07E5005F041FD06464FF07E5176
:1009A000304606F001F80546002863D044F6CD42F3
:1009B00043F2333572B6484B45F25C6045F25E61F6
:1009C0001D525A5262B63F4B9B7803F00603042B2C
:1009D000424B04BF01221A701B78404A4BB902B047
:1009E00070BD3F49304605F0C1FF002852D03D4858
:1009F000B8E700231620137002F030F905F0C4FDAB
:100A0000394905F015FE0021054605F0C3FF002811
:100A100048D04FF07C51284605F002FD05F0E4FF78
:100A2000264B324DDA78643442F00302DA705C60AF
:100A30000C3805F0A9FD2E4905F0AEFE01464FF039
:100A4000804004F0F7F96B6955F8234006462046CC
:100A5000FFF716FE3346EA69A9692046FFF7FCFD59
:100A60006B692A69013393426B6104BF00236B6198
:100A700002B070BD0021304605F078FFD0B91D49A5
:100A8000304605F0D5FD05F0AFFFC0F5004212B2CB
:100A900005B28FE74FF08F41304605F0C9FD05F0F4
:100AA000A3FF5FE74FF07C51284605F0B7FC05F047
:100AB0009BFFB5E7104A7DE7E83E002084D7FF1F83
:100AC0004C3B0020303B002000FEFF460000FF7F33
:100AD000803B002074D7FF1F8CD7FF1F5C3B00209A
:100AE00000FEFFC60000018000009C3B603B002030
:100AF00000004041CDCC4C460080FFFF2DE9F84F6F
:100B0000B749B84BC8789A78B74DB84EB84FDFF8A8
:100B10002C930B240C8000F0FC00002402F0FC025B
:100B20004FF0080E64F382026FF38200C8704C60CD
:100B30009A70714603F10C000A22A3F800E05C6091
:100B40009C6000F08FF9AB4BAB4A5C6015201C72C7
:100B5000D860AA491D60184605F06CFFA84BA64A4C
:100B60001D605C601C721846A4491725DD6005F005
:100B700061FFA448A44DFFF779FCA448FFF776FC79
:100B8000A348FFF773FCA348FFF770FC06F12802A7
:100B900004213046FFF790FD4FF480389E48C6F898
:100BA0000090C6F81880C6F81C80C6F82080C6F8E9
:100BB000248000F051FC07F1280204213846FFF799
:100BC0007BFDDFF87CE22C72012005F11802234640
:100BD0002146EC60C7F80090C7F81880C7F81C8061
:100BE000C7F82080C7F82480C5F800E068722A6141
:100BF0002C4600E0226942F823106A7A82480133C9
:100C00009A42F7DC854B1A680AB9E6E01A4653693E
:100C1000002BFBD155610024DFF828A2804B6C61CA
:100C2000AC80EC80AC727848DFF81C922B6000F04E
:100C30002BFE744BCAF8003050468AF80840CAF8B8
:100C400004608AF80940CAF80C408AF8104003F0A2
:100C5000D9FB694A7349DFF8F481DFF8BCB150462B
:100C600005F0E8FE4FF0010A684BC9F8003048462D
:100C700089F80840C9F80460C9F80C4089F81040A8
:100C800089F809A003F0BEFB66495B4A484605F0B7
:100C9000D1FEDFF8BC915E4A88F808400223404646
:100CA00088F80930C8F80460C8F80C4088F810408B
:100CB000C8F8002003F0A6FB5A494F4A404605F009
:100CC000B9FEDFF89081534A89F80840032348466B
:100CD00089F80930C9F80460C9F80C4089F8104057
:100CE000C9F8002003F08EFB434A4E49484605F000
:100CF000A1FEDFF8649188F80840404688E8C0000B
:100D000088F80940C8F80C4088F8104003F07AFBD6
:100D1000394A4449404605F08DFEDFF84081C9F864
:100D20000060484689F8084089F80940C9F80C4035
:100D300089F81040C9F804B003F064FB2E4A394921
:100D4000394E484605F076FE404688F809A0C8F8B6
:100D500000B0C8F8047088F80840C8F80C4088F85B
:100D6000104003F04FFB244A2E49404605F062FE36
:100D700030467560347237607472F460347403F016
:100D800041FB1D4A2749DFF8D880304605F052FE66
:100D9000264BC8F8183053F8045C2548C8F81040B2
:100DA00025F07F430E21C8F81C30C8F8144003F02A
:100DB0002FF9D8F81C101F4803F0B0FD0D211E4874
:100DC00003F026F92346290E10221A4803F066FD87
:100DD0001848BDE8F84F03F051BD18601BE700BF8D
:100DE00084D7FF1F303B00207CC703002C3A002033
:100DF000803B00204C3B0020FCCBFF1F99060000ED
:100E000074D7FF1F643A0020143B0020903A002062
:100E1000BC3A0020E83A00208CD7FF1FE83F0020B2
:100E2000D8C80300AD06000060D7FF1F5C74000047
:100E300094C7030004CEFF1FA4C70300CCC803005F
:100E400064C70300B83B0020CC3B0020E03B0020FF
:100E500010D7FF1F24D7FF1F38D7FF1F4CD7FF1F06
:100E6000603B002030B5094B426083B01B680193A2
:100E70000D46019B0360002104468160284602F074
:100E800007FA20732046657303B030BDE83E0020AA
:100E900030B5044683B0407B02F0FAF9237B8342ED
:100EA00010D00A4A256813680093009B61685B1B99
:100EB0008B4207D313680193019B207301202360A9
:100EC00003B030BD002003B030BD00BFE83E0020BD
:100ED00030B583B00446FFF7DBFFB0B9A3681BB998
:100EE0000023A37303B030BD0B4925680A68009244
:100EF000009A521B9342F3D80B680193019BA060A8
:100F000001202360A07303B030BD01200023A36043
:100F1000A07303B030BD00BFE83E0020837B23B147
:100F2000007B003018BF012070471846704700BF93
:100F3000837B23B1007BB0FA80F0400970471846EC
:100F4000704700BF2DE9F04F9BB0044603F094F9C1
:100F50001690002800F070820021204603F024FA49
:100F60001790002800F07182344B199345F24C69B8
:100F700045F2506034F90930069345F25267235E1A
:100F8000189345F25466E35F099345F25661A35FF7
:100F9000049345F25862635E089345F25A6AA35E71
:100FA000079334F90A30059304F5AC431A4604F567
:100FB000C5491E46CDF8449002F13C093E320B92E1
:100FC00006F140020C9206F142020D9206F1440233
:100FD0000E9206F146020F9206F14802119B109202
:100FE00032464A3203921A46183211921A461A327F
:100FF00045F24E65129245F25E681A4645F25C6C07
:1010000045F2606E1C321E3334F905B0139234F988
:10101000088034F90CC034F90EE0CDF80890149330
:10102000179B18989A1C0192169A03F58173023245
:101030000A9215934FF0000A5D4601E0B4C7030021
:10104000019B33F9022F019302EB021202EB022201
:10105000520022F34F42029B06991E8804EB46077A
:1010600001FB0CF9B7F91C3003FB089929F3CF39C0
:101070000FFA89F1069112B201FB0EF929F3CF396B
:10108000914409F30F090136A7F81C900299B6B2F2
:1010900040F25B47BE4294BF0E80A1F800A00B99BE
:1010A0000E8804EB460905FB0CF5B9F9D4783B44EE
:1010B00007FB085525F3CF352DB205FB0EF727F3B7
:1010C000CF37174407F30F070136A9F8D478B6B223
:1010D00040F2A347BE428ABF0B990E80A1F800A040
:1010E0000C990E8804EB460707F590571C37B7F9A3
:1010F000009000FB0CF04B4409FB080020F3CF30BC
:1011000000B200FB0EF929F3CF39914409F30F091E
:101110000136A7F80090B6B240F2FC47BE428ABF43
:101120000C990E80A1F800A00D990E88099904EB86
:10113000460707F5E0571637B7F9009001FB0CFB9F
:101140004B4409FB08BB2BF3CF3B0FFA8BF9CDF8CF
:10115000249009FB0EF929F3CF39914409F30F09C3
:101160000136A7F800900D99B6B240F24B57BE4237
:1011700094BF0E80A1F800A00E990E88049904EB8C
:10118000460707F51A572E37B7F9009001FB0CFBFD
:101190004B4409FB08BB2BF3CF3B0FFA8BF9CDF87F
:1011A000109009FB0EF929F3CF39914409F30F0987
:1011B0000136A7F800900E99B6B240F28D57BE42A4
:1011C00094BF0E80A1F800A00F990E88089904EB37
:1011D000460707F547570A37B7F9009001FB0CFBA4
:1011E0004B4409FB08BB2BF3CF3B0FFA8BF9CDF82F
:1011F000209009FB0EF929F3CF39914409F30F0927
:101200000136A7F800900F99B6B240F2D257BE420D
:1012100094BF0E80A1F800A010990E88079904EBE6
:10122000460707F575573037B7F9009001FB0CFBFF
:101230004B4409FB08BB2BF3CF3B0FFA8BF9CDF8DE
:101240001C9009FB0EF929F3CF39914409F30F09DA
:101250000136A7F800901099B6B240F21467BE426A
:1012600094BF0E80A1F800A003990E88059904EBA5
:10127000460707F593471A37B7F9009001FB0CF1C1
:101280004B4409FB081121F3CF3109B2059101FB51
:101290000EF929F3CF394A4402F30F020136B6B2F0
:1012A000B6F5CA6F3A808ABF039A0399A2F800A0E4
:1012B00047F6E12298BF0E8002FB03F323F34F436E
:1012C00011990E8804EB460707F5AC470FFA83F92E
:1012D000B7F9622003EB6203A7F86230C9EB0202A0
:1012E00022F34F020136B6B2B6F50B7F38BF0B467C
:1012F000129938BF1E800E8828BF119B04EB460749
:1013000007F5B54728BFA3F800A0B7F93A300FFAA0
:1013100082F902EB63027A87C9EB030323F34F03DD
:101320000136B6B2B6F5DC7F98BF0A46139998BF6E
:1013300016800E8888BF129A04EB460707F5BC4753
:1013400088BFA2F800A0B7F92C200FFA83F903EBAD
:101350006203BB85C9EB020222F34F020136B6B22B
:10136000B6F5AA7F98BF0B46149998BF1E800E88C9
:1013700088BF139B04EB460707F5C14788BFA3F856
:1013800000A0B7F956300FFA82F902EB6302A7F812
:101390005620C9EB030323F34F030136B6B2E02E08
:1013A00096BF0A46149A16801BB2C3EB031388BF7C
:1013B000A2F800A05B0003F30F030A9A22F8023F91
:1013C000019B0A92159A93427FF43AAE45F24E631E
:1013D00045F25062E55245F25265BDF82410A05224
:1013E00045F25463615345F25660BDF81010E15266
:1013F00045F25862BDF82030235245F25A66BDF8D6
:101400001C30A35245F24C65BDF81430A353BDF80F
:10141000183063532046169C0022214602F0AAFF92
:10142000204602F07DFF1798199A90420AD01BB00F
:10143000BDE8F04F02F074BF0146204602F0B4FF51
:101440000028F4D11BB0BDE8F08F024B199317931D
:101450008CE500BFB4C70300F8B50446674B0360D2
:101460000021012004F118020B46607222612172F2
:10147000E16000E0226942F82310627A01339A4267
:10148000F8DC5F4B1A680AB9B6E01A465369002BBC
:10149000FBD15461204600255A4B6561A580E5804B
:1014A000A572294640F81C3B40F6B80205F0C4FD81
:1014B000294640F6481204F6D40005F0BDFD04F5B7
:1014C0009050294640F6FA121C3005F0B5FD04F59F
:1014D000E050294640F69822163005F0ADFD04F59F
:1014E0001A50294640F61C322E3005F0A5FD04F5B1
:1014F0004750294640F6A6320A3005F09DFD04F516
:101500007550294640F62A42303005F095FD04F525
:101510009340294640F6A2421A3005F08DFD45F26F
:101520003C6345F23E6045F2406745F2426145F258
:101530004462E55245F24666255245F2486345F25B
:101540004A60E553655245F24C67A55245F24E613B
:1015500045F25062A553E55245F25266255245F2D6
:10156000546345F25660E553655245F25867A552FB
:1015700045F25A6145F25C62A553E55245F25E665A
:10158000255245F2606341F69910E553655246F2E3
:101590006767A05246F6843204F5AC402946A7534B
:1015A0006230E2524FF48B6205F046FD04F5B5401F
:1015B000294640F272323A3005F03EFD04F5BC4057
:1015C000294640F2AA222C3005F036FD04F5C14030
:1015D00029464FF4E172563005F02EFD46F2982070
:1015E00046F29A2146F29C2246F29E2325526552EB
:1015F0002046A552E552F8BD1C604BE764C70300C6
:10160000E83F0020C0C8030010B5044603F01CF8F2
:10161000204610BD024A0349034805F00BBA00BF3B
:10162000FCCBFF1F09160000F43B002038B5074D26
:10163000074C08482A46214605F0FCF92A4621466F
:101640000548BDE8384005F0F5B900BFFCCBFF1FE9
:1016500009160000FC3B0020043C0020024A03491C
:10166000034805F0E7B900BFFCCBFF1F09160000D7
:101670000C3C0020024A0349034805F0DBB900BFD7
:10168000FCCBFF1F09160000143C0020024A03494E
:10169000034805F0CFB900BFFCCBFF1F09160000BF
:1016A0001C3C0020024A0349034805F0C3B900BFAF
:1016B000FCCBFF1F09160000243C00202DE9F84355
:1016C0004FF00008064600F11805474641463046EF
:1016D000002F4FD002F068FEF0B12C68B4F5803FC7
:1016E00007F1040100F1040E07F5827C27D05EF8B3
:1016F000042B34FB02F334FB12F903F30F0209F35A
:101700000F03C2EA03430A6893FA12F341F8043B59
:101710008C45ECD802F004FE08F10108B8F1040F82
:1017200005F10405D2D1002F40D0304639460022C1
:1017300002F020FE3846BDE8F84302F0F1BD07F1A3
:101740000C0100F10C0451F8083C54F8082C93FAF1
:1017500012F341F8083C54F8042C51F8043C93FA75
:1017600012F38C4541F8043C04F1080401F108012E
:10177000E9D8CFE702F024FE07460028CCD028683D
:10178000B0F5803FC8D0391D07F582740B6830FB77
:1017900003F230FB13F302F30F0203F30F03C2EA69
:1017A000034341F8043B8C42F0D8B5E7BDE8F88329
:1017B000024A0349034805F03DB900BFFCCBFF1FB7
:1017C000091600002C3C002010B5002102F0ECFDB1
:1017D00070B172B60A4B1A6872B10A490C6844B10A
:1017E0001C60086062B61046BDE8104002F098BD6B
:1017F00010BD086062B610BD186062B610BD00BFB3
:10180000443C0020343C002038B5184B18491A6875
:10181000184C12681B79184D0B70A242286836BF0D
:101820002246A4F5807202F58074C0B1011D31F921
:10183000023B03F500431B1122F8023B9442F6D809
:1018400002F06EFD0D4B0022196829601A600C4BE6
:101850001B781BB10B4B4FF080421A6038BD4FF420
:10186000006322F8023B9442FBD8F0E7383C0020AA
:101870001F80004000C4FF1F443C0020343C002077
:10188000403C002008E200E0F8B501214248434E08
:1018900002F076FE424A43491368802043F48053A5
:1018A00013600024087040F60805348001200834D5
:1018B00001F002FDA3B2AB421CB2F6D13A4B1B6859
:1018C0005B0208D5394B1A6848F6A273134048F6F4
:1018D000A27293424FD03449344A0B68344F354D8D
:1018E0003548364C43F480030B604FF0010E40F254
:1018F0002F3648F6A37140F20113C7F800E02E60BE
:10190000116014600360244C2D4A236823491A6037
:1019100002259D802279196102F1804202F504328C
:10192000284EDE6040F20111D9804FF48070002112
:101930000627B026D8829D60D88399829F839961BB
:101940001170167002F0C2FD22791F4B1F4E1870E5
:1019500053119B0003F160431D4C327003F561434A
:1019600002F1100002F01F0701211A4D44F8205027
:10197000B9401960F8BD0F4B1A6840F22F339A42F4
:10198000A9D10B4B1B68012BA5D10B4B1A6840F258
:1019900001139A429FD1B6E7383C002000C00C40AA
:1019A0002C80044021C00C403C8004400060034077
:1019B0000C6003400460034010600340A28F0100EC
:1019C00000C3FF1F00FEFFFF403C00201B800040C3
:1019D00000C6FF1F09180000024A0349034805F02A
:1019E00029B800BFFCCBFF1F09160000383C0020BF
:1019F000024A0349034805F01DB800BFFCCBFF1F96
:101A000009160000483C0020024A0349034805F03B
:101A100011B800BFFCCBFF1F09160000503C00208E
:101A2000024A0349034805F005B800BFFCCBFF1F7D
:101A300009160000583C0020024A0349034804F0FC
:101A4000F9BF00BFFCCBFF1F09160000603C00205F
:101A5000024A0349034804F0EDBF00BFFCCBFF1F5F
:101A600009160000683C0020024A0349034804F0BC
:101A7000E1BF00BFFCCBFF1F09160000703C002037
:101A800010B4047F4160022CC26002D010BC02F08E
:101A9000F5BD836810BC1847F0B4464B464A186B36
:101AA000DC6A01791170454922790A709A6A0079D5
:101AB0000870002A46D05968C9688A423ED8216811
:101AC000CC8B240402F1FF3065D4C0F30E00C88330
:101AD000C88B80B2C882196B0968C88B000452D4C5
:101AE000C2F30E00C883C88B002480B212F1FF320B
:101AF000C88218BF01229C62D96A2E4809680D6805
:101B000000F12404A54236D00068C46814F0804F68
:101B10000C680D6815BF248824780235013544F01F
:101B200000440D604463196B254B097919702149F4
:101B300012B1CA6A12791A70F0BC7047521A9A62CE
:101B40000122D9E7586B196805681E4C0A63CC62FC
:101B5000CC682D681C4E24F080440327B542CC602D
:101B600083F825701FD1037F4260022BC2601ED014
:101B7000F0BC02F083BD016890F82400CC6840F00E
:101B800000404863CFE7CC8BC2F3080004F47E44E6
:101B90002043C883A7E7CC8BC0F3080004F47E443D
:101BA0002043C88394E72B461146F0BC184783684E
:101BB000F0BC184700CCFF1F1F8000401C80004075
:101BC0001B80004000000FFF811A000000207047BA
:101BD000704700BF064B074ADA62022100225960B3
:101BE0009A7083F8242083F8302083F832207047DD
:101BF000783C00205CC9030010B50121007801F099
:101C000041FB0E4A137893B10D49CB7A0024184654
:101C1000147063B1DC0703D50A4A8869106018465E
:101C20009A0705D4430702D5074B0A6A1A6010BD0C
:101C3000064BCA69C87A1A60F4E700BFD03C00209E
:101C400000CCFF1F00E100E008E100E004E100E05B
:101C50001E4B1A781AB10078002101F013BB70B442
:101C60001B4A1C49D47A096801251D70ECB172B673
:101C7000D37ADE071C4606D5174DD4682E6834404B
:101C800094612C601C469D0706D5144D13692E687F
:101C9000D47A3340D3612B60630705D5104C536968
:101CA00025682B401362236062B61368DA688A42A3
:101CB00007D00C4C1C600C4AD96041F080441C6178
:101CC0001A600078002170BC01F0DCBAD03C002022
:101CD00000CCFF1FCC3C002080E100E084E100E06C
:101CE00088E100E001403F0000003F80F0B412486E
:101CF000124A036882B016460093009F4FF00045D9
:101D0000FF24136843F480631360D5625463D36A7D
:101D1000002BFCDAB36BDBB2FF2B09D00368019315
:101D2000019BDB1B8B42ECD3002002B0F0BC704760
:101D3000012002B0F0BC7047E83E002000C0024025
:101D4000F8B50D464FF4967116460446FFF7CEFFE0
:101D5000284B1A684FF0004042F4806245F0400181
:101D60001A60D8621A465963D36A002BFCDA2149FB
:101D700018204FF000470A6826FA00F342F4806208
:101D8000DBB20A60CF624B63CB6A002BFCDA083807
:101D900010F1080FEFD155B3082D0CBF8721FF219B
:101DA000144B1A684FF0004042F480621A60D86207
:101DB0001A465963D36A002BFCDA0E4A00271646EE
:101DC0004FF00045FF21136843F480631360D56230
:101DD0005163D36A002BFCDAB36BD8B21B06607078
:101DE00000D4F8BD0137B7F5807FECD1F8BD95215F
:101DF000D6E700BF00C00240F0B41549154A0B6891
:101E000082B016460093009F4FF00045FF241368F0
:101E100043F480631360D5625463D36A002BFCDA09
:101E2000B36BDBB2FF2B43700AD10B680193019BAC
:101E3000DB1BB3F5967FEAD9002002B0F0BC7047F7
:101E4000A3F1FE00B0FA80F0400902B0F0BC704788
:101E5000E83E002000C00240F8B58378032B0E4610
:101E6000044618BF4E021546FFF7F2FE3246112116
:101E70002046FFF765FF18B92046FFF7BDFF20B9E0
:101E80002046FFF7B9FE0020F8BD204B2049214A2B
:101E90001A608E4659631A4659631E46596305F502
:101EA000FD70A91C05F5FE77D36A13F0F00FFBD087
:101EB000C6F834E0B36B01F8013C1B1201F8023C98
:101EC00002318F42F0D105F50075A8420DD20F4ABC
:101ED0001646D36A13F0F00FFBD0B36B191200F85B
:101EE000021BA84200F8013CF3D3084B0949084AF9
:101EF000196019465A63CB6A044A13F0F00FFAD0FE
:101F00002046936BFFF778FE0120F8BD00C0024029
:101F1000FFFF009000041F80F0B4314E33684FF093
:101F2000004743F4806333603D46F7623446716393
:101F30003346511C02F20127E26A002AFCDA1A68D1
:101F400011F8016C42F480621A60DD625E63E26A3D
:101F5000002AFCDA1A6811F8026B42F480628F42A0
:101F60001A60DD625E63E7D11D49CA6A1C4B002A14
:101F7000FBDA1A684FF0004542F48062FF241A60D1
:101F80001946DD625C63CB6A154A002BFBDA1368E5
:101F90004FF0004543F48063FF2413601146D5627F
:101FA0005463CB6A0E4A002BFBDA13684FF00045EE
:101FB00043F48063FF2413601146D5625463CB6AF7
:101FC000074A002BFBDA936BDBB203F01F0243706E
:101FD000A2F10500B0FA80F04009F0BC704700BFE4
:101FE00000C0024070B5044671B18378032B0D46E2
:101FF00018BF4D021646FFF72BFE2A461821204631
:10200000FFF79EFE054620B12046FFF7F5FD0020B4
:1020100070BD3246FE212046FFF77EFF0028F3D038
:102020004FF416712046FFF761FE0028ECD02A46D7
:102030000D212046FFF784FE0028E5D10B4B1A68DE
:102040004FF0004542F48062FF201A601946DD62BD
:102050005863CB6A054A002BFBDA936B13F0FF0F32
:10206000D2D12046FFF7C8FD012070BD00C002405C
:10207000014B024A1A607047CC3C00200000023835
:1020800038B590F90530002B03DBBDE8384000F08F
:102090006DB904460121006900F092F9F8B1257D7F
:1020A000104B13EB45151AD0A3790F4A012B9CBF97
:1020B000A369EB61E36912686B831B0CAB8232B1DD
:1020C00005F1160105F1180090472B8B6B8263799F
:1020D00003F07F036371BDE8384000F047B900208A
:1020E00038BD00BFE03C0020D43C002010B500F11A
:1020F000080204460121006A00F000FA50B1E369C9
:102100003BB96379A268E26163F07F0363710120E8
:1021100010BD012010BD00BFF8B5837913B18269ED
:102120008A4201D20020F8BD022B0F4605461AD084
:1021300007B32B6AE9681C7C4A1E04F109037C1E64
:10214000DA40DC40A24211D9EB69AB6005F1080628
:1021500006E0A968286A00F099F9013C0028E1D05E
:102160003246002CF5D1EF600120F8BD0029EBD0FC
:10217000A41AEBE7AF60EF600120F8BD2DE9F04F46
:102180008B46817985B001290746019205D001234C
:102190003B71002005B0BDE8F08F42799107F6D57C
:1021A000530708D5FC68B9698C4200F0A880FFF796
:1021B000B3FF0028EBD0019BFC68002B49D0DFF86F
:1021C0008C91DFF88CA1DDF80480386A0679013E35
:1021D00006EA542616F0FF06C4F3080442D1002C88
:1021E00040D1B96800296FD1FA69002A7ED0BA605F
:1021F000C4F50075ADB245453AD9057C4169023A4E
:10220000AA400E4416441FFA88F51CB9F868BA694A
:1022100090424CD23046012100F0D2F80028B6D0CE
:102220004C4404EB050E74450DD00BF1FF31621EDA
:102230000EF1FF3611F8010F02F8010F9642F9D1A5
:10224000C4EB0E04A344FC68B8EB05082C44FC6006
:10225000BBD1BB69A34257D27A79BC6142F08002FC
:102260007A715AE0C4F50075ADB24545BA68C4D874
:10227000017C4069023A8A400644B5F5007F164465
:10228000C3D1DAF80020964204BF4FF0FF32CAF8FB
:1022900000202A4A314610685A46FFF7A3FE00285C
:1022A0003FF475AF0BF5007B4FF40075CBE700F002
:1022B0005DF800283FF46BAF2149CAF800600A7846
:1022C00042F001020A70ABE703AA00F0DFF8002831
:1022D0003FF460AF386A1B4B90F82050039A4FF6DA
:1022E000F871102D18BF19468A4280D33846FFF77F
:1022F000FDFE00283FF44BAF386ABA6878E7019BCF
:10230000002B7FF45CAF08E00F4B7A791B6823B198
:10231000019B13B142F080027A71120709D5BB7993
:10232000002B3FF434AF3846FFF7AAFE00283FF4F5
:102330002EAF019805B0BDE8F08F00BFDC3C002057
:10234000E03E0020F8FFFF0FD43C0020E03C0020DE
:1023500038CCFF1F00B583B002AB012203F8011D8A
:102360001946FFF70BFF03B05DF804FB70B50F4C87
:1023700023780BB9012070BD0D4B0E4D19682868EC
:102380000D4AFFF72FFE70B10C4E316819B90023CA
:102390002370012070BD2868074AFFF723FE10B1A3
:1023A00000233360F3E7002070BD00BFE03E002053
:1023B00038CCFF1FDC3C0020E03C0020D83C002053
:1023C00070B50D4D2B6883420E460ED00446FFF7C4
:1023D000CDFF08B9002070BD084B094A1868214696
:1023E000FFF73AFD0028F5D02C60064B19783143F1
:1023F0001970012070BD00BF38CCFF1FDC3C0020ED
:10240000E03C0020E03E0020F8B590F82030C469A0
:10241000102B1A4B05460E4617461B6816D004EBC8
:10242000D1149C4216D106F07F06154A42F8267058
:102430001449287E0A78012842F001020A7018D94E
:10244000A968114A0B4413600120F8BD04EB112464
:102450009C4208D000212046FFF7B2FF50B195F80A
:102460002030102B07D1F6B2054A234622F8167009
:10247000DEE70120F8BD2346D5E700BF38CCFF1FBB
:10248000E03C0020E03E0020D83C0020C36801333F
:102490008B4218D370B590F82030102B154B0446A2
:1024A00016460D46C0691B680FD000EBD11098424C
:1024B0000FD105F07F01104B53F8213023F070430A
:1024C0003360012070BD0020704700EB112098425E
:1024D00007D00021FFF774FF50B194F82030102B83
:1024E000E7D1E9B2044B33F811303360012070BDFD
:1024F000002070BD38CCFF1FE03C00202DE9F04FDC
:10250000176883B06FB301374FF0000AC36803F157
:10251000010813B38B46064691463C46002505E06C
:102520001C461F46F3680135AB4216D9A04538BF9B
:102530000224214601AA304638BF2746FFF7A6FFEE
:10254000631CD91B48B1019A002AE9D18B4510D0F0
:102550001C46F3680135AB42E8D8002003B0BDE863
:10256000F08FA1F1010ABAFA8AFA07684FEA5A1AFB
:10257000CCE7012CF1D9F36801339C42EDD86FF020
:10258000704221463046FFF73FFF0028E5D0A742C2
:1025900014D2013C012CE0D9F36801339C42DCD811
:1025A000621C21463046FFF72FFF0028D5D0A742F6
:1025B00004F1FF3402D0012CEED1CEE7D9F800109F
:1025C00059B10129C9D9F36801339942C5D83A46AE
:1025D0003046FFF719FF0028BFD0C9F80070BAF1E4
:1025E000000F01D0013737600120B7E790F839209C
:1025F00090F83800101A704790F8383090F8392069
:102600009A4205D95A1C034480F83820187E704736
:102610004FF0FF30704700BF90F8383090F8392005
:102620009A4286BF1B18187E4FF0FF30704700BFDC
:10263000704700BF38B50546B0F85E0090B195F818
:102640005D301446C3F1210294420CD805F13B00E1
:102650001844224600F0FCF895F85D30234485F8D4
:102660005D30204638BD012014462871EEE700BFDA
:10267000B0F85E306BB190F85D30202B07D8C218EF
:10268000013380F85D30012082F83B107047012350
:1026900003710020704700BF10B50269D378DBB228
:1026A000D90604463DD510215806D17038D503F01F
:1026B000040303F0FF02002B51D03D49626E00235A
:1026C0000B7084F85D30002A5BD0904794F85D3041
:1026D000002B56D02369D0229A70236994F83B20AE
:1026E0001A712369012284F85C200222DA7010BD7D
:1026F000304B84F860009C424AD02F4B9C4252D011
:1027000094F8391013791F29DBB207D828480078CC
:1027100020B16018013184F8391003760223D37098
:1027200010BD5906C3D4917801F0100101F0FF00EB
:102730000029DDD013F001031ED194F85C1094F849
:102740005D00884281BF4B1C091984F85C3091F808
:102750003B3013712369D0229A702269DEE7236926
:1027600084F83920C0229A702369114A197901210D
:1027700011700222DA7010BDC023937022691379A0
:10278000CCE70122002384F85D2084F83B30A1E7E8
:10279000626994F86130094913440322187A00F001
:1027A000A1FB2269ACE7626994F861300449F3E760
:1027B000E13E00203CCCFF1FA8CCFF1F21280000D9
:1027C0002D2800000369DB7803F0200373B190F833
:1027D00060300133DBB2012B80F860301AD94269D6
:1027E00090F861301344187A00F0F8BB70B5426974
:1027F00003F0FF0590F8613013440446187A00F0A6
:10280000EDFBA36E5BB184F8385094F83900BDE855
:102810007040184790F85F30002BE0D0704770BDD3
:102820000148FFF7CFBF00BF3CCCFF1F0148FFF7B7
:10283000C9BF00BFA8CCFF1F0148FFF72DBF00BFD5
:102840003CCCFF1F0148FFF727BF00BFA8CCFF1FEC
:10285000844641EA000313F003036DD1403A41D3AB
:1028600051F8043B40F8043B51F8043B40F8043B6A
:1028700051F8043B40F8043B51F8043B40F8043B5A
:1028800051F8043B40F8043B51F8043B40F8043B4A
:1028900051F8043B40F8043B51F8043B40F8043B3A
:1028A00051F8043B40F8043B51F8043B40F8043B2A
:1028B00051F8043B40F8043B51F8043B40F8043B1A
:1028C00051F8043B40F8043B51F8043B40F8043B0A
:1028D00051F8043B40F8043B51F8043B40F8043BFA
:1028E000403ABDD2303211D351F8043B40F8043B9A
:1028F00051F8043B40F8043B51F8043B40F8043BDA
:1029000051F8043B40F8043B103AEDD20C3205D3A9
:1029100051F8043B40F8043B043AF9D2043208D0A1
:10292000D2071CBF11F8013B00F8013B01D30B8813
:1029300003806046704700BF082A13D38B078DD0F1
:1029400010F003038AD0C3F10403D21ADB071CBFC3
:1029500011F8013B00F8013B80D331F8023B20F82D
:10296000023B7BE7043AD9D3013A11F8013B00F866
:10297000013BF9D20B7803704B7843708B788370EE
:1029800060467047374A384913681B06FCD40B6809
:1029900013F08003F8D172B634490A78002A5FD068
:1029A000334A3448F0B4344C176806682568D46854
:1029B0000C303E44143200681268304F35442C44C9
:1029C00020440244C2F34E022D4E2E482E4D2F4C71
:1029D00042F400423A60376806682D682C4A246841
:1029E0000C303E44006812682A4F35442C44204481
:1029F0000244C2F34E02284E2848294D294C42F485
:102A000000423A60376806682D68274A24680C300F
:102A10003E4400681268254F35442C44204402444B
:102A2000C2F34E02224E2348234D244C42F400426E
:102A30003A60376806682D68214A24680C303E44A5
:102A40000068126835442C4420440244C2F34E020C
:102A50001C4842F4004202600B7062B6F0BC704742
:102A600062B6704724B0034024B00B40E33E002020
:102A700038B003403CB0034040B003402CB00340AA
:102A800058B003405CB0034060B0034064B0034002
:102A90006CB0034030B0034038B00B403CB00B404A
:102AA00040B00B4044B00B404CB00B402CB00B403E
:102AB00058B00B405CB00B4060B00B4064B00B40B2
:102AC0006CB00B4030B00B4030B42948294A2A4B37
:102AD0002A4D6024E121047011701B78284C082BCA
:102AE00030D00A2B2748284937D00C2B0CBF152291
:102AF0003D2212232A60236002600B60234B24498D
:102B00001B78244ABBB101230B601360224B23497D
:102B10001B78234A012B26D9042B0FD9082B1ED949
:102B2000102B94BF862387230B6013601D4B01225B
:102B30001A7030BC70470B601360E7E784230B60AA
:102B40001360F3E700F58E200F49083001221323AC
:102B50002A60236002600B60D0E71922F7E7852323
:102B60000B601360E2E780230B601360DEE700BFB9
:102B7000004007400140074014CDFF1F08B003404C
:102B80000CB0034008B00B400CB00B40E63E0020F8
:102B900020B0034020B00B4015CDFF1F24B00340F0
:102BA00024B00B40E33E002068B10E4A1378C3B94D
:102BB0000D4909780120107019B10C490C4A0B60BD
:102BC0001360FFF781BF074B1A7852B1064A18709D
:102BD0001378002BF5D0054A054B10601860FFF7FD
:102BE00073BF7047E63E0020E33E002024B0034060
:102BF00024B00B400C2830B417D91023984228BFBA
:102C000018461C46104A114D1178181A8C4228702B
:102C100018D00F4913700B7823B10E490E4A0023C8
:102C20000B60136030BCFFF74FBF0A2802D90C239A
:102C30001C46E7E7082802D90A231C46E2E70823D6
:102C40001C46DFE730BC704714CDFF1FE23E00207A
:102C5000E33E002024B0034024B00B4028282FD8A6
:102C6000334B2DE9F0411E5CFF2E2BD0314B1B78EE
:102C7000002B2AD132062CD472B62F4D2F4C2F4662
:102C8000012326602B7062B672B623681B060CD433
:102C90003B781BB9F4E72B78002BF1D062B601F03A
:102CA00065FE72B623681806F5D5254B1B68002211
:102CB0002A7062B6234A107843FA00F0BDE8F0812A
:102CC000002070470020BDE8F081FFF75BFE320670
:102CD000D2D572B61C4DDFF87C801C4C06F0400744
:102CE000FFB206F03F06D8F80030DFB123F0100342
:102CF000C8F8003001232660134A2B7062B672B602
:102D0000236819060CD413781BB9ECE72B78002B39
:102D1000E9D062B601F02AFE72B623681B06F5D52B
:102D20000B4BC3E743F01003C8F80030E2E700BFE5
:102D3000D0C90300E33E0020E53E002000B0034080
:102D400010B00340E23E0020E43E002000B00B4003
:102D500010B00B400CB00B400A4A0B49136843F407
:102D6000805313600B7843B9084BC0221A70084B8C
:102D700080F30C0000B218807047044B80221A7058
:102D8000F5E700BF2C800440E63E002021C00C4047
:102D900000C00C4008B5104C08E0236859050DD45C
:102DA00023681A050FD42368DB0411D42368580361
:102DB000F3D500F0F9FB23685905F1D501F05AFE6F
:102DC00023681A05EFD501F0EBFE2368DB04EDD58F
:102DD00001F07CFFEAE700BF3480044008B5FFF74C
:102DE000D9FF00BF014B10221A8070470020054018
:102DF000704700BF094908B50B6830B16A461844EE
:102E0000A2F58052904202D20860184608BD03F035
:102E10001DFE0C2303604FF0FF3008BD18CDFF1FCF
:102E2000FEE700BF704700BF10B40F4B53F83020CF
:102E300092F880422CB1012369B182F8803010BC35
:102E4000704703EBC0035B681A6841B922F00202C5
:102E50001A6010BC704782F8003110BC704742F015
:102E600003021A6010BC7047FCC903001C4A02EB45
:102E7000C00301295B6811D004291BD052F830002F
:102E8000002280F8802229B1022920D0032922D0F3
:102E90001A6070474FF480721A60704752F8300021
:102EA0004FF4A27280F880121A601A6822F0200291
:102EB0001A60704752F830104FF4A272012081F866
:102EC00080021A601A6842F020021A60704740F2CD
:102ED00003121A6070474FF481721A60704700BF86
:102EE000FCC90300212817D8F8B5042A13D8DFE855
:102EF00002F0494C4F1446002C4872B6236823F464
:102F0000702343F08072C4F384011643236040F8B9
:102F10002150266062B6F8BD70474FF41026244B4E
:102F200003EBC0030D465C68216811F4E06134D006
:102F3000204B214A2149C3F89C2104F140422048FA
:102F4000C3F8A411A2F592211E4FC3F8A0017C2959
:102F50001D48C3F8A871C3F8AC01CDD9A2F59423DC
:102F60007C2B18D9A2F596237C2B19D9A2F598238E
:102F70007C2B17D9A2F59A227C2A15D9F8BD4FF4DB
:102F80003026CCE74FF40026C9E74FF44026C6E7C9
:102F90004FF42026C3E70D48AFE7FFF767FFC7E709
:102FA0000B48AAE70B48A8E70B48A6E71CCDFF1F74
:102FB000FCC9030000C6FF1FD1CBFF1F79CBFF1F49
:102FC000A5CBFF1F4DCBFF1F21CBFF1F54CDFF1FF4
:102FD000A4CDFF1FD4CDFF1FF4CDFF1F1A4B03EB71
:102FE000C00010B4426802F14043A3F592217C294D
:102FF00005D9A3F594217C2913D8144900E014497C
:1030000072B61368134C23F08773C2F3840023F461
:10301000803343F08073136041F8204062B610BCE7
:103020007047A3F596217C2909D9A3F598217C291D
:1030300007D9A3F59A237C2BF1D80749E0E7074984
:10304000DEE70749DCE700BFFCC9030054CDFF1FE2
:103050001CCDFF1F252E0000F4CDFF1FA4CDFF1FA8
:10306000D4CDFF1F30B4054B054D064C0022102176
:103070001A602A602060196030BC704714D0034089
:1030800004D0034000D00340282838B52ED00029B2
:1030900004464FDD5F4B1B78012505FA03F28A4297
:1030A00002D8212837D938BD0338C2B2012A3AD90B
:1030B000202C4AD0192C48D0574A126802FB011222
:1030C00022FA03F31D2800F29B80DFE800F0928BC8
:1030D000847D9999766F999999999999999999680F
:1030E000615A53994C99999999999945494B1B78EB
:1030F0000B2B08D90C2B1CBF0C3B19410846BDE813
:103100003840FFF729BEC3F10C0399400846BDE8DB
:103110003840FFF721BE2946FFF786FE2946BDE865
:103120003840FFF7A3BE3D4A126802FB011222FAA3
:1031300003F3C7E72128B6D80021FFF775FE204624
:103140000121BDE83840FFF791BE354A126802FB05
:10315000011222FA03F3B5E73249334A0B604FF408
:103160005173136038BD3149314A0B604FF45173CC
:10317000136038BD2F49304A0B6040F2444313605E
:1031800038BD2E492E4A0B6040F24443136038BDCF
:103190002C492D4A0B6040F24443136038BD2B4943
:1031A0002B4A0B6040F24443136038BD29492A4A38
:1031B0000B6040F24443136038BD2849284A0B6035
:1031C00040F24443136038BD2649274A0B6040F261
:1031D0004443136038BD2549254A0B6040F24443FF
:1031E000136038BD2349244A0B604FF451731360B8
:1031F00038BD2249224A0B604FF45173136038BD29
:10320000212C3FF650AF7F29D4BF00210121204659
:1032100093E700BFFCCDFF1F0880034008900340E8
:1032200008800B4010800B4048A0044018800B40E1
:103230004CA004401880034008B0044010800340B4
:1032400004B004404080034018C00440388003406C
:1032500014C004402880034010B004402080034084
:103260000CB004403080034010C00440488003404C
:103270001CC0044018900340349004401090034058
:1032800030900440212801D8FFF7CEBD704700BF21
:10329000212806D8044B53F8303093F80002C0B20E
:1032A00070470020704700BFFCC90300212801D8E7
:1032B000FFF7DCBD704700BF2DE9F843054672B645
:1032C000214F224B224A1B683C68126862B65201A9
:1032D00002D5322B88BF0134A5B3C3F58C331D4E04
:1032E000DFF86890DFF8688003F23F134FF47A72DA
:1032F000A6FB031302FB04F404EB131472B6D9F813
:1033000000103A68D8F800E062B6C1F58C3303F2D9
:103310003F13A6FB03031EF0806FC4EB13134FF49F
:103320007A7002D0322988BF013200FB0233B3F534
:103330007A7F04D3013D05D004F57A74DEE701F00D
:1033400015FBDBE7BDE8F883E83E002018E000E06D
:1033500004ED00E0398EE338F8B52D4B2D49DFF848
:10336000D0E0DFF8D0C02C4E2C4D2D4C2D4A2E4FE6
:103370004FF4000018604FF0807018604FF000703C
:1033800018604FF0806018604FF0006018600020F7
:103390000860282348F6FF71CCF80010CEF8003002
:1033A000336013602B6023603B60B3629362092239
:1033B00045F8242CC4F8D80F05F57F65C7F8D41F4D
:1033C00007F5FF2707F5FA67C6F8F83F2B6006F503
:1033D000FF26C4F8D42F05F5FD2504F5FF24386039
:1033E00006F2F4761148316005F5FF6504F5FD64D9
:1033F0002B6023600260FFF767FB1920FFF75CFF7B
:1034000000F0FEFC40F21310BDE8F840FFF754BF97
:1034100008E100E00480034014800340248003405E
:103420002C8003401C8003403480034000800B400C
:103430000C80034008800340431E032B14D872B64F
:103440000A4951F8230068B170B4094C058834F872
:103450001320466841F82360521B24F8132062B6FB
:1034600070BC704762B6704700207047443F002030
:10347000FC410020013803280BD872B6074B53F8E3
:10348000203043B100205B680130002BFBD162B6D5
:103490007047002070471846F9E700BF983F0020AA
:1034A000F0B472B61A491B4E012311F8014B194FA3
:1034B0009A00240742F0010505D556F8324064B160
:1034C00056F83520BAB10133052BEED162B6124B56
:1034D00000221A70F0BC00F00FBD0F4C0F4D217888
:1034E00047F8325007EB431308304A1E58602270E9
:1034F00062B6F0BC70470849094B0A7847F8353086
:1035000007EBC5030830013A58600A7062B6F0E76D
:1035100038CB03000080FF1FC13F0020880040001F
:10352000C8004000431E032B1DD81B4A400140F039
:10353000100030B4104472B6184CE25C032A1BD859
:10354000DFE802F00212151703220D88E25410F092
:10355000080F14BFC823882343EA054308310360DA
:10356000416062B630BC704708300222EDE70522A8
:10357000EBE708300422E8E7094A52F8230038B1A3
:10358000084A52F82300416042F8231062B6E9E786
:1035900042F82310034AF7E70080FF1FD03F0020C6
:1035A000983F0020A83F00202DE9F04FDFF804A34A
:1035B000DFF804B387B044E0A94F4FEA930807EB64
:1035C000C809013ED9F8042003F00803F6B2A2F1BD
:1035D000080003F0FF04002B40F0FE8057F838305D
:1035E0001B0C99B222F8081C002B00F0EC809D4BBC
:1035F00022F8064C42F8044C53F82620002A00F02A
:103600002B82994D55F826305860984C45F8260085
:1036100034F81630194424F8161000F04DFC002838
:1036200000F01382924A934B19F0080F00F1080042
:1036300018BF1346C9F8040047F8383008238AF841
:1036400000309AF80040E4B260071AD58A4B1B7824
:10365000A3B18A490A7802F0FF0322B1013BDBB231
:103660000B7003B900BE86490A7802F0FF032AB145
:10367000013BDBB20B70002B00F0BD8104238AF804
:10368000003004F0080303F0FF02002B00F0C880B4
:103690009BF80030DBB21E098ED19C08704F57F8A2
:1036A000342007EBC401C2F38302013A49680C2AB3
:1036B00000F28580DFE802F0797983838383838356
:1036C00042838383070008686E4B6F4D0193684BFC
:1036D0004A686E4E47F8343081B240F28164694BDB
:1036E0006A60286000220120A1421A603A61BA6132
:1036F000307000F2E380B1F5D06F80F02782B1F531
:10370000817F00F0E08100F2C381802900F03682E1
:10371000822940F0DE81A9885D4B01F07F010429F8
:1037200000F2D8815B4C89000B44227062701A78D9
:10373000930740F122832070022023E2514B019332
:103740001A683AB3544B514E5449188834780D785E
:103750004028864645F0020828BF4FF0400E002C56
:1037600084F001043470CEEB00000CBF8824C82420
:1037700007EBC80680B285F0010544EA0E4472608A
:10378000188047F8384072440D70002800F0B78068
:10379000019B1A603C4B1A88B2F5A06F0FD1002133
:1037A0009A7859703E4B1A7009E0374A108842F2F5
:1037B0002102904200F0A8802D4A47F83420394A6F
:1037C000012313703AE72A4A2A4B19F0080F18BF51
:1037D000134647F8383031E700F08EFB324A334960
:1037E00052F82630002B00F03B8158688C5D42F87F
:1037F000260003F10802C9F80420032C05D8DFE8ED
:1038000004F02C02292602228A551A8819F0080F82
:103810000CBF8823C82343EA024347F838300DE73A
:10382000E00700F1EB80210600F12881A20706D510
:103830001F4A204913780220DBB213700870E30698
:1038400002D51C4B10221A7007B0BDE8F08F04227D
:103850008A55DAE705228A55D7E703228A55D4E745
:103860000080FF1F443F0020F03E0020FC4100206C
:10387000C800400088004000CC3F0020553F002099
:10388000D43F0020EC3E0020B83F0020543F0020F1
:10389000C0200740C43F0020003F0020C03F002060
:1038A0009820074094200740983F0020D03F0020F8
:1038B00088200740802007409020074042F22104E2
:1038C000A14200F0948043D8B1F5086F00F0A881C0
:1038D000B1F5106F40F0FD80B84AB94CA97811706D
:1038E00004F1800503E00834AC4200F09E81236AB5
:1038F0001906F8D5606A083800F0FEFAF3E7BEF161
:10390000400F18BF002243E7AE4ACD1D11F8013B1E
:1039100002F8013FA942F9D1AB4A1268862A00F0A9
:103920001181AA49AA4E0A78307882F00105002850
:1039300042F002020D700CBF8821C82147F83210F6
:1039400007EBC20280F0010000213070516033E7C4
:1039500042F22124A14240F0FE81DFF8BCC29D4B1F
:103960009D49AC78DCF800501D6081460C70002049
:10397000029080468446044694490D7845F0020E34
:1039800007EBCE03B9F1000F5C600CBF8824C8249C
:1039900044EA080385F0010447F83E3032700C70A9
:1039A000DFF81CE28A4BDFF82482002840F0988080
:1039B000BCF1400F1BD144F0020407EBC403029F8B
:1039C000DFF8FCE15F60002A40F09F80020442F0D3
:1039D000880207444EF8342086F800900D703B466C
:1039E000402804D100207D4A019910800B607C4A58
:1039F00001231370E3E600F0EBFB3FE6704B7848E1
:103A000072491A614FF0020E80F800E0754F0A709B
:103A1000754919609960754E754D764C9A610D2106
:103A20003970FF213170DFF8F4E129702270724D96
:103A3000724A8EF800109F27012406F8047C5D600E
:103A40000470DA6007B0BDE8F08F6D4A47F83800BF
:103A5000137801331370F1E543F82600694DD4E57E
:103A60008B5D032B67D801A252F823F03D3600008E
:103A70003D360000C13A0000BB3A000059495C4B9A
:103A800080220D2008701A70A2077FF5D8AECFE60D
:103A900040F20232914240F05681A98801F07F0144
:103AA000042916D86A88A2B94E4C89000C44814674
:103AB000217841F00201217059E701238B55BDE5C2
:103AC00000238B55BAE5A98801F07F01042940F253
:103AD0004781444B0F221A70414A012313706EE64E
:103AE00040287FF668AF44F002040EEBC401029E4A
:103AF0004E60AAB1444A83F800903346403888F8B3
:103B0000005040334EF834206DE70204029B86F8E3
:103B1000009042F0C8020D7003444EF834205FE775
:103B200083F80090029B304A88F8005040384033B8
:103B30004EF8342057E719F0080F0CBF0223032377
:103B40008B557BE5314A0F211170EAE6304A546803
:103B5000002CBED06888B5F804E003E00C3254684D
:103B6000002CB6D013888342F8D153887345F5D121
:103B7000000A03280CBF2078108903E0254C02209E
:103B800022706270EA88824280F00C810F490D78C1
:103B9000402A45F0020E944607EBCE0028BF4FF0B6
:103BA000400C04EB0C0344600293CCEB02004FEAA0
:103BB0000C484FF001090022C824E9E6CC3F002060
:103BC0000080FF1F0342002004420020C03F00206D
:103BD000543F00200C420020E43F0020003F002022
:103BE00094200740C02007408800400088200740FC
:103BF0008020074098200740043F0020583F0020C5
:103C0000C13F0020F03E0020C8004000553F00208A
:103C10003CCB0300C43F0020E83E00208C2007403E
:103C2000684A694C12782270ACE76849684B694A67
:103C300002916949694C6A4D039405964FF0000959
:103C400088461C4616460495206828B1456800F051
:103C500053F92846002DF9D100232360049B3068D6
:103C60001A46002342F8293028B1456800F044F98B
:103C70002846002DF9D100223260029A98F80030CF
:103C80001146002241F8042B039A0291023B4FF0A7
:103C9000000122F81910032B07D8DFE803F03402E3
:103CA00034024FF0010388F8003009F10109B9F13D
:103CB000040F04F1040406F1040608F10108C3D15D
:103CC000484B059EDFF83091DFF8308100211970F4
:103CD000012518F8013B09F8043B1A0718D4AC0079
:103CE00044F0020244F00304002347F8323047F85E
:103CF00034303D4B994505F10105EAD196F8009025
:103D000089F0010233E64FF0000388F80030CCE779
:103D100000F0D2F8AC0007EB451300F108020028D0
:103D200037D05A60314B47F8343000F0C5F844F0D2
:103D3000010307EBC30200F1080100B351602C4AF4
:103D400047F83320CCE7B1F5A06F7FF4C2AE002274
:103D50004FF001090BE642F221329142F7D0B8E66A
:103D60006A88002A7FF4B5AE224C89000C44814653
:103D7000217821F002012170F9E5022002E7194BB8
:103D800044F001021B7847F83200164A01331370E1
:103D9000A6E7144B134A1B78AC00013347F83400F4
:103DA0001370C2E74028844628BF4FF0400C04EB54
:103DB0000C03CCEB00004FEA0C48029300224FF0BA
:103DC0000109D9E5CC3F0020C43F0020A83F0020D6
:103DD000443F0020983F0020D03F0020FC410020BD
:103DE000F03E0020C13F0020D42007408800400062
:103DF000C8004000C0200740C420074038CB030063
:103E00002DE9F843204C00F0CDFF002204F188009A
:103E100023461A605A60083383424FF00001F8D1FC
:103E20001A4A1B4F13681B4D1B481C4EDFF8788045
:103E3000DFF878C0DFF87890DFF878E043F480238B
:103E40001360C4F307233B70C4F307432B70240EA5
:103E5000FF2302F528320470114D88F80030114814
:103E60008CF80030D4323370012389F8003070268A
:103E70008EF800104FF40074102107F8183C2E70D3
:103E800004601170BDE8F8830080FF1F3480044097
:103E90009C200740B0200740B42007401020074076
:103EA00049E400E008E100E0802007408820074066
:103EB000942007400021074072B60D480268B2FA0C
:103EC00082F30B2B10DC4FF00041D94022EA0102B3
:103ED000026062B6074803EBC303DB00C21800218F
:103EE000C15010465160704762B60020704700BF55
:103EF00000CEFF1FBCC7FF1F0D4B0E4AC31AA2FB0B
:103F000003231B090B2B0CD80B4A127852B972B63B
:103F10000A484FF00041026821FA03F31A43026095
:103F200062B67047064A1278002AF0D0FFF7B8BA96
:103F3000BCC7FF1F398EE338C13F002000CEFF1FF2
:103F4000CC3F002038B50F4D286878B143880288EF
:103F5000C118013393420C7A02D24380204638BD07
:103F6000FFF7CAFF002320462B6038BD064B1B78A5
:103F70002BB10320FFF760FA28600028E6D14FF04C
:103F8000FF3038BDE03F0020CC3F002010B5094C89
:103F9000206818B143881844007A10BD064B1B787E
:103FA0002BB10320FFF748FA20600028F2D14FF030
:103FB000FF3010BDE03F0020CC3F0020044B054AFD
:103FC0001B6890881BB11A885B88D31A1844704705
:103FD000E03F0020FC4100200B4B1B789BB110B54B
:103FE0000A4C206848B1FFF787FF002303202360B5
:103FF000FFF722FA30B1FFF77FFF0320FFF71CFA2B
:104000000028F8D110BD7047CC3F0020E03F0020D1
:104010002DE9F04FDFF8F89083B0012289F80020F5
:10402000019169B3DFF8EC80364F019E8346D8F8E2
:104030000000B0B3344D4488C4F14001B14228BF00
:10404000314604EB010E00221FFA8EFE2A70761A0A
:10405000A0F802E000F1080251B1013C22445944A9
:104060001BF8014B02F8014F8B45F9D1B0F802E083
:10407000BEF13F0F0BD8254A05211170002ED6D175
:104080000198002389F8003003B0BDE8F08F40228A
:10409000028001460420FFF745FA0022C8F80020FC
:1040A000E9E73A782AB3184D48F601444FF0010A7F
:1040B00007E0013C16D02A78A2B900F057FC3A7804
:1040C000BAB10420FFF7D6F90728F2D889F800A082
:1040D000FFF7F2FEC8F800000028ACD10C4B013C01
:1040E0001870E8D101234FF0FF302B7003B0BDE80A
:1040F000F08F00234FF0FF3089F8003003B0BDE8A7
:10410000F08F00BFCC3F0020DC3F0020D43F0020D8
:10411000D53F0020D83F002000B583B002AB01217D
:1041200003F8010D1846FFF773FF03B05DF804FBB9
:1041300038B50E4D0E4C28680123237028B14088F5
:1041400000232370C0F1400038BD0A4B1B7813B91F
:104150000020207038BD0420FFF78CF90728F7D81D
:10416000FFF7AAFE28600028E9D1F1E7D83F002038
:10417000D53F0020CC3F0020F8B5114B1B788BB108
:10418000104E114D346801272F7064B10F4A6388B7
:1041900000271770214623800420FFF7C3F93760FA
:1041A00000232B70F8BDFFF787FE084B28B10146AE
:1041B00004201C70FFF7B6F9F2E71F70F0E700BFAC
:1041C000CC3F0020D83F0020D53F0020D43F002026
:1041D00038B50E4B1B7873B90D4C216861B103F0F3
:1041E000FF054B880B800420FFF79CF9256038BD44
:1041F000084B01221A7038BDFFF75EFE0028F7D089
:104200000146BDE838400420FFF78CB9D53F0020B7
:10421000D83F0020D43F0020C029F0B428BFC021DF
:1042200072B6124B124E134A18600023138033608B
:104230007360B360F36033617361012799B15D0905
:1042400003F01F0456F8252007FA04F40133224333
:104250008B4246F82520F2D10023438001338B4264
:1042600000F58270F9D162B6F0BC7047F03F0020D3
:10427000F83F002012400020F0B472B6234F244EC5
:104280003C8806F1180306EB8400984212D256F8D7
:10429000241099B9021D06F11B05631CAD1A03EB2E
:1042A000950503E052F8041B41B90133AB421C46AB
:1042B0001046F7D162B60020F0BC7047B1FA81F326
:1042C0004FF00042DA4021EA0201016001B90134F5
:1042D00010493C800A88013294B20C8062B6801B7F
:1042E0008010C3EB401000EB801083000A480B499C
:1042F000006803F5FB531C330125C5540D88AA4201
:10430000184488BF0C80F0BC704700BF12400020EA
:10431000F83F002014400020F03F0020EC3F002038
:10432000428872B60378012B03D9013B037062B651
:104330007047531170B40C4C0C4D54F823102E8858
:10434000D2434FF0004002F01F0220FA02F2114364
:10435000074A44F82310B34238BF2B801388013B2F
:10436000138062B670BC7047F83F002012400020F6
:1043700014400020C368B3B130B401E0DB688BB1F6
:10438000187A9042FAD158685C7A006950F8245043
:10439000002DF3D140F82410087801300870DB6854
:1043A000002BEDD130BC7047437A8B4206D90369AC
:1043B000002253F8210043F8212070470020704765
:1043C00038B5437A8B421AD9036953F82140002249
:1043D00043F821209CB12378012B0ED9FFF74CFF25
:1043E000054628B14FF48072211D0430FEF730FAE3
:1043F0002378013B2370284638BD204638BD002075
:1044000038BD00BF037C23BB4368427A5B7A9A4283
:104410001FD830B472B60468E3682BB3DA6832B1DF
:1044200019688C4216D01346DA68002AF8D1D86091
:104430000023C360A37A0133A37202684168012399
:1044400013728A7A1A448A7242681372037462B6CB
:1044500030BC70475D6841688D42E4D11989038999
:104460009942F4D01346DFE7E060E1E7037C4BB309
:104470004368427A5B7A9A4224D872B60268D3685B
:1044800003B3984202D11EE0984202D0DB68002BB1
:10449000FAD14368427A1B69002143F8221002686E
:1044A000937A013B937203689A7A02B91A7242684E
:1044B000937A013B937243689A7A02B91A72002385
:1044C000037462B67047C368D360E2E7084B1A789A
:1044D00062B930B407480849D02505704FF08044D0
:1044E00001220C6010461A7030BC704700207047E3
:1044F000F43F00205EE400E008E100E01A491B4AB6
:104500001B48F8B50B681B4D046843F080730B60C3
:10451000136843F0010313602E6814B915E0646951
:104520009CB1237A002BFAD023682F681B682046A1
:1045300098472B68E188DB1B1B099AB28B42A2804B
:1045400088BFE2806469002CEBD10A4B0A4A1B68E1
:1045500010880A4C9B1B1B0999B28342218001D908
:104560001180F8BDF8BD00BFFCED00E0001000E0D8
:10457000E83F0020041000E010400020164000201A
:10458000F0B572B699B902688AB103790F2B0ED8CB
:10459000274C218841FA03F5ED070AD503F1007392
:1045A00003F59063B2EB431F03D162B6F0BD204C1C
:1045B0002188002341FA03F212F0010207D00133EF
:1045C000102BF7D162B6002203710260F0BD012505
:1045D0009D402943218062B6164E174D174FDFF8D4
:1045E00064E0D9B20171346844F0020434602C688C
:1045F00044F002042C60A6F580268224A5F58025CF
:1046000003F100733C6003F59063223E243D0C4CA3
:104610008EF800105B0131702970217003601A6000
:104620005A609A60DA601A615A619A61DA61F0BD83
:1046300018400020408004403C800440008000403E
:104640001F8000401A80004003790F2B11D8094ABF
:1046500010B4137072B6084904790A880123A34084
:1046600022EA03030B8062B61022002310BC027101
:10467000036070471A8000401840002010B4EFF328
:10468000108272B6437F33B9017F012907D0032915
:104690000FD00123437702B962B610BC7047124CA9
:1046A0002168A1B1114943610B68836108605861B9
:1046B000EFE70F4C216881B10E4943610B688361BC
:1046C000086058610C4B4FF080511960E1E7074BCF
:1046D0004161816120601860DBE7064B41618161C7
:1046E00020601860EEE700BF2C400020284000202A
:1046F0001C4000202040002004ED00E070B5EFF3E6
:10470000108272B60C4C206880B10C4E00254369B3
:10471000236073B19D6102B962B64577836898479B
:10472000EFF3108272B620680028F0D102B962B6A9
:1047300070BD3360EFE700BF1C4000202040002028
:10474000FFF7DCBF184A30B41468002C27D0036888
:1047500021688B420ED2CB1A00218460C160236095
:10476000E06010600223037530BC704711688B4213
:10477000144608D3A2685B1A0360002AF6D182604F
:10478000C460A060EEE7D268C2608460E060C56883
:10479000CB1A0222A8602360027530BC7047846087
:1047A000C4601060DEE700BF24400020F8B5224E50
:1047B00034682CB32368002B3AD1204F1D4604E007
:1047C0003468ECB12368002B32D1A36803B1DD60FB
:1047D00020693360036825751B68BB4221D1037FC4
:1047E0004560022BC46020D0FFF748FF6368002BB0
:1047F000E6D023602046FFF7A5FF3468002CE1D106
:10480000EFF3108372B60E4A00211068116003B9ED
:1048100062B628B18468FFF795FF20460028F9D1D9
:10482000F8BD224600219847E0E783689847DDE716
:10483000013B2360E4E700BF24400020811A000010
:1048400034400020024A136801331360FFF7AEBF03
:10485000E83E0020F8B572B106460F461446002522
:10486000336817F8011B1B6830469847013C054424
:10487000F6D12846F8BD1546FBE700BF00B5064A4D
:10488000036812885B6883B001A9ADF80420022296
:10489000984703B05DF804FB0CCB0300F0B5074666
:1048A0008BB0002A33D0012A08BF0A2251B3212439
:1048B00000E0F4B2B1FBF2F502FB1511C8B2092910
:1048C00000F1300198BFC8B20AA988BF373021442F
:1048D00088BFC0B201F8240C661E2946002DE8D11D
:1048E00033B1013CE4B20AAB23442D2203F8242C5B
:1048F0003B6801AA11195B683846C4F12202984747
:104900000BB0F0BD30228DF825202124E8E70368A4
:10491000C9B21B6898470BB0F0BD00BF0029BABFF1
:1049200049422D2300230A22FFF7B8BF08B5FBF741
:10493000EBFEFBF7E9FF00F019F8FAE702F0BCB86C
:10494000FFF74ABBFFF722BBFFF7FCBAFFF736BB06
:10495000FFF712BCFFF7ECBB08461146FFF758BB48
:104960000846FFF7D9BB00BF704700BF38B5224CDF
:10497000237803B138BD01232370FFF71FFB70BB01
:1049800000F068F840BB00F0FBF810BB00F08EF9B7
:10499000E0B900232370EFF30583002BEAD1EFF396
:1049A000108172B6154B1868E0B1154C2278CAB95F
:1049B00045691D6001232370C5B1AA6101B962B6C2
:1049C00000254577836898472570D3E700F030FAD3
:1049D000DFE700F02BFAD9E700F026FAD3E7FFF77C
:1049E000C3FFCDE70029C5D162B638BD054B1D60B8
:1049F0000029E5D1E3E700BF384000202C4000202B
:104A00003040002028400020F0B44D1E2E460024E7
:104A100000E00134B0FBF2F302FB1300092800F1BF
:104A200030078ABF3730F8B2C0B206F8010F184617
:104A3000002BEED10A1953704CB1107815F8016FA4
:104A400028700133E01A834202F80169F5DB084659
:104A5000F0BC7047054A064B10781B78C0B2DBB239
:104A6000984238BF4030C01A704700BF4040002015
:104A700041400020F0B4384B1A7912F0300F2CD09E
:104A800072B6997D01F0FF0200293DD062B6334F26
:104A9000334938780D78334E1C46C0B2EDB2431C12
:104AA000402BE17928BF0023AB4202F1FF32C9B2AB
:104AB0001CBFF154184612F0FF02F0D12A4B1B68BC
:104AC000C2B23A704BB1A84236BFC5F14005401B97
:104AD00040192728C4BF01221A701F49CA78D2B2D0
:104AE000150616D452060DD51B4B1B795B0609D54E
:104AF0001E4B1F491B6800220A7003B11A70164B27
:104B00003C22DA70F0BC70474022D9795A7462B600
:104B1000E3E70B791C06E5D5164B174E1C78337866
:104B2000E4B2DBB29C420ED0144D01E0A3420AD0A5
:104B30000133402B28BF00230879E85CC0B2C8715C
:104B4000087D0728F2D9DBB2034933700B791806C8
:104B500044BF7C23CB70C5E700A006404040002046
:104B600041400020844000203C400020C8400020FC
:104B7000C4400020CC400020C5400020444000201C
:104B8000054A064B10781B78C0B2DBB2984238BF9A
:104B90004030C01A704700BF40410020D54000207F
:104BA000F0B4384B1A7912F0300F2CD072B6997DD0
:104BB00001F0FF0200293DD062B6334F3349387807
:104BC0000D78334E1C46C0B2EDB2431C402BE17948
:104BD00028BF0023AB4202F1FF32C9B21CBFF1541F
:104BE000184612F0FF02F0D12A4B1B68C2B23A708D
:104BF0004BB1A84236BFC5F14005401B40192728DC
:104C0000C4BF01221A701F49CA78D2B2150616D441
:104C100052060DD51B4B1B795B0609D51E4B1F4950
:104C20001B6800220A7003B11A70164B3C22DA701E
:104C3000F0BC70474022D9795A7462B6E3E70B7929
:104C40001C06E5D5164B174E1C783378E4B2DBB260
:104C50009C420ED0144D01E0A3420AD00133282B10
:104C600028BF00230879E85CC0B2C871087D072816
:104C7000F2D9DBB2034933700B79180644BF7C23A9
:104C8000CB70C5E700B0064040410020D540002071
:104C900000410020D040002044410020D4400020AA
:104CA0004841002041410020D8400020054A064BE1
:104CB00010781B78C0B2DBB2984238BF4030C01ABF
:104CC000704700BF504100205141002030B42B4BB1
:104CD0001A7994061FD52A48DA79037829490133CD
:104CE0003F2B0978C8BF00238B42D2B203D0264C99
:104CF000D9B2E2540170254A116861B1244A127890
:104D0000D2B2934236BFC2F140029B1A9B18272BA6
:104D1000C4BF01230B70194AD378DBB2180611D433
:104D20005A060DD5154B1B795B0609D5194B1A4947
:104D30001B6800220A7003B11A70104B2C22DA7023
:104D400030BC704711790906EAD5144910480C782F
:104D50000178C9B28C420DD04A1C272A84BF002199
:104D60000A460F4D054C98BFD1B2AA5CD2B2E2718F
:104D70000170D5E76C21D170D2E700BF00C00640BA
:104D800050410020514100207C4100204C41002036
:104D9000BD410020C0410020BC410020C441002092
:104DA0005441002070B584B072B6194B194D1A48A1
:104DB000702241260F2480211A702E701A4604702A
:104DC000197013781B06FCD5144B186862B6144B87
:104DD000144C984298BF00EB800001A998BF400096
:104DE0000A22FFF711FE01A92046002311F8012B2A
:104DF00001333AB10A2B20F8022FF7D11623237082
:104E000004B070BD5B00DBB2237004B070BD00BFA6
:104E10000000024007000240060002400800024075
:104E20007F969800A0CEFF1F704700BF704700BF5D
:104E3000704700BF2DE9F047DFF8E8828AB00646E8
:104E40000D4600F071F998F900707B1C04463FD0C4
:104E50002946284601F0B2FD8246002838D1314665
:104E6000304601F0ABFD00218146002840F09680DD
:104E7000304601F071FD00282ED00021284601F0B7
:104E80006BFD8246D0B1A14BCDF820900122304677
:104E90008DE80C0000F080FFCDE90201284600F00B
:104EA0007BFF00220023CDE90401CDE90623002F7A
:104EB00062D04FF07E500AB0BDE8F087284600F07F
:104EC0009DFD28B10021284601F050FD00283AD16F
:104ED00020460AB0BDE8F087204600F08FFD074667
:104EE000002877D00021204601F036FD0028EFD0C1
:104EF000304600F083FD0028EAD0284600F07EFD11
:104F00000028E5D00423814A00933046002308930B
:104F1000019200F041FFCDE90201284600F03CFF7C
:104F200098F9003000240025022BCDE90401CDE9D9
:104F3000064503D0684600F0CFFC10BB01F086FDAB
:104F4000222303601DE0714BCDF820A001223046E2
:104F50008DE80C0000F020FFCDE90201284600F0AA
:104F60001BFF98F90030CDE90401002B40F08D8043
:104F700000220023CDE90623684600F0ADFC00289E
:104F80007ED0089B1BB101F061FD089B0360DDE949
:104F9000060101F0EFF90AB0BDE8F087284601F0FC
:104FA000DBFC002894D0594BCDF820A001223046DC
:104FB0008DE80C0000F0F0FECDE90201284600F07B
:104FC000EBFE534B0022022FCDE90401CDE906236D
:104FD000D2D16EE7304600F011FD002882D028467D
:104FE00000F00CFD00283FF47DAF2146204601F083
:104FF000E5FC002872D1454B0890032230468DE82D
:105000000C0000F0C9FECDE90201284600F0C4FE04
:1050100098F90040CDE904013046002C3CD13D4BCD
:105020004FF060420021CDE9062301F09FFC0028EB
:1050300080D028464FF07C5101F0FAFA00F0ACFE27
:1050400004460D4600F04AFC02460B46204629461F
:1050500001F05EF900283ED12F4B98F900404FF047
:105060006042CDE90623022C7FF464AF66E7104668
:10507000194601F00FF8022CCDE906017FF47CAF50
:1050800001F0E4FC212303607BE724490020022B8C
:10509000CDE90601F4D06FE7214B00220021CDE9D4
:1050A000062301F063FC0028DDD028464FF07C5138
:1050B00001F0BEFA00F070FE04460D4600F00EFC52
:1050C00002460B462046294601F022F918B9134B37
:1050D0000022CDE9062398F90040C4E70B4B08975E
:1050E000012230468DE80C0000F056FECDE90201A9
:1050F000284600F051FE98F90040CDE90401002255
:105100000023002CB3D1CDE9062335E790CB030073
:105110000000F03FFFFFEF47FFFFEFC70000F0FF89
:105120000000F07FB6CEFF1F2DE9F04F31F00048B0
:1051300087B011D020F00049B9F1FF4F824605DD5C
:10514000514807B0BDE8F04F00F060BCB8F1FF4F28
:1051500007DDB9F17E5FF3D14FF07E5007B0BDE8B7
:10516000F08F00280C464ADB0025B8F1FF4F3ED0F7
:10517000B8F17E5F07460E4654D0B4F1804F6BD035
:10518000B4F17C5F1DD000F035FCB9F1FF4F51D078
:10519000B9F1000F4ED0B9F17E5F4BD04FEADA7A09
:1051A0000AF1FF3255EA020366D0B8F19A4F6FDD7B
:1051B000364B994500F36182002CC0F264820020D6
:1051C000CCE7BAF1000F4BDA00F014FCB9F1FF4F55
:1051D00002D0B9F1000FDED1A9F17E5959EA0503D9
:1051E00043D0012DBAD100F100410846B6E7B9F12C
:1051F0007E5FB1D02BDD002CE1DB0846AEE7B8F1D5
:10520000974F22DAB8F17E5F0ADB4FEAE853C3F129
:10521000960348FA03F202FA03F3984500F0288255
:105220000025A5E7002C99DA01464FF07E5001F0E9
:10523000B3FA93E7002C04DA01464FF07E5001F0F8
:10524000ABFABAF1000F89DAC6E702258DE7002C28
:10525000B5DA01F1004081E7014601F0E9F97DE7A7
:1052600007B0BDE8F04F00F0E3BA014601F0D6F810
:10527000014601F091FA71E73946384601F0CEF85F
:10528000014601F089FA69E794CB0300F7FF7F3FFD
:10529000B9F5000F80F204824FF09741009201F0BF
:1052A000C7F9009A81466FF017014FEAE953B448F5
:1052B000C9F316097F3B0B4481451946009349F019
:1052C0007E5740F3E581AF4B994540F33D82002383
:1052D000184603930B460133009300234FF07E5A88
:1052E000A7F500070290019351463846059201F058
:1052F00095F851468346384601F092F801464FF042
:105300007E5001F049FA01460490584601F090F9A8
:105310007910019B41F00051B94601F5802120F43C
:105320007F670B4427F00F071946804638460193E4
:1053300001F07EF90146584601F070F85146834667
:10534000019801F06BF80146484601F067F83946CC
:1053500001F06EF90146584601F060F8049B1946C9
:1053600001F066F941468346404601F061F98649FD
:10537000814601F05DF9854901F052F8494601F096
:1053800057F9834901F04CF8494601F051F9814938
:1053900001F046F8494601F04BF97F4901F040F829
:1053A000494601F045F97D4901F03AF849468246FF
:1053B000484601F03DF90146504601F039F93946B9
:1053C0008146404601F02CF8594601F031F9494632
:1053D00001F026F839468246384601F029F970492D
:1053E000019001F01DF8514601F01AF820F47F6990
:1053F00029F00F094946384601F01AF9684907466D
:10540000484601F00BF8019B194601F007F80146E8
:10541000504601F003F8414601F00AF9494680463A
:10542000584601F005F90146404600F0F9FF824672
:105430000146384600F0F4FF20F47F6929F00F0997
:105440004846584901F0F4F839468046484600F08D
:10545000E5FF0146504600F0E1FF534901F0E8F84E
:1054600052490746484601F0E3F80146384600F045
:10547000D7FF029900F0D4FF0746009801F084F8A6
:1054800039468146404600F0CBFFDDF80CB0594666
:1054900000F0C6FF494600F0C3FF20F47F6A2AF0FF
:1054A0000F0A4946504600F0B9FF594600F0B6FFD2
:1054B000414600F0B3FF0146384600F0AFFF059AC1
:1054C000804624F47F6424F00F04013D55EA020372
:1054D0002146304614BF4FF07E57354F00F09EFFF7
:1054E000514601F0A5F831460546404601F0A0F8C6
:1054F0000146284600F094FF21460646504601F03A
:1055000097F880460146304600F08AFF0028814621
:10551000044620F00045C24640F30081B5F1864FB5
:1055200000F3CE8000F0BE80B5F17C5F00F3D08048
:105530000025A94624F47F6424F00F0420461D4969
:1055400001F076F851468046204600F067FF01469C
:10555000304600F063FF184901F06AF81749064623
:10556000204601F065F80146304600F059FF064636
:105570000146404600F054FF4146044620E000BF8B
:1055800071C41C00D6B35D0042F1533E55326C3EEF
:1055900005A38B3EABAAAA3EB76DDB3E9A99193F95
:1055A000000040400038763F4F38763FA0C39D361C
:1055B000000080BF0072313F1872313F8CBEBF3592
:1055C00000F02CFF0146304600F028FF21468046BF
:1055D000204601F02DF88549064601F029F8844956
:1055E00000F01CFF314601F023F8824900F018FF5B
:1055F000314601F01DF8804900F010FF314601F0FE
:1056000017F87E4900F00CFF314601F011F8014611
:10561000204600F003FF06460146204601F008F848
:105620004FF080418246304600F0F8FE0146504679
:1056300001F0B2F841460646204600F0F9FF414627
:1056400000F0EEFE0146304600F0E8FE214600F094
:10565000E5FE01464FF07E5000F0E0FE4319B3F541
:10566000000FC0F2BF801846394600F0E1FF75E533
:1056700002F00102C2F102057AE5614B99456DDD48
:10568000002C7FF79CAD5F49084600F0D1FF65E52F
:1056900000230393029300234FF07E5A019323E6E5
:1056A000002102E65849304600F0BAFE41468246E3
:1056B000484600F0B3FE0146504601F075F938B196
:1056C0003846504900F0B4FF4E4900F0B1FF45E5BF
:1056D000ED154FF400037E3D43FA05F52B19C3F396
:1056E000C7524A49C3F316097F3A114149F40009E8
:1056F000C2F1170249FA02F9002C23EA01014046DF
:10570000B8BFC9F1000900F089FE01468246304663
:1057100000F086FE4FEAC95504460BE73C4B9D421C
:105720000ADC7FF401AF414600F078FE01463046C6
:1057300001F026F90028CBD03846364900F078FF32
:10574000344900F075FF09E5334B0393334B029363
:105750004FF400134FF07F5A0193C5E54FF07E518F
:10576000009200F05BFE2E49074600F061FF2D49D4
:105770008046384600F05CFF4FF07A51814638464B
:1057800000F056FF0146284800F048FE394600F078
:105790004FFF01464FF07C5000F040FE39468246F4
:1057A000384600F045FF0146504600F041FF1F49D2
:1057B00000F03EFF0146484600F030FE0146074635
:1057C000404600F02DFE20F47F6A2AF00F0A414681
:1057D000504600F023FE0146384600F01FFE009AB6
:1057E00080466EE6494600F015F93DE74CBB313383
:1057F0000EEADD3555B38A38610B363BABAA2A3E3B
:105800000700803FCAF249713CAA3833FFFF7F008E
:10581000000016436042A20D00C0153FDCCFD13519
:1058200000AAB83F70A5EC36ABAAAA3E3BAAB83F87
:1058300020F00042B2F1FF4F70B504462ED262B3A1
:10584000002803463DDBB2F5000F4FEAE0502CD3B1
:105850007F38C3F31603C20743F4000348BF5B005D
:10586000002640105B00314619244FF080728D18DD
:105870009D4202DC5B1BA9181644013C4FEA43031E
:105880004FEA5202F3D113B106F001031E44761021
:1058900006F17C5606EBC05070BD70BD014600F0AD
:1058A000C7FE214600F0BCFD70BD14F4000201D01B
:1058B0000EE00A465B001C0202F10101F9D5801AD4
:1058C000C6E7014600F0AAFD014600F065FF70BD85
:1058D0004FF0FF32F3E700BF00207047F0B5C1F38F
:1058E0000A5EAEF2FF36132E83B002460B460C461C
:1058F0004FEAD17507462EDC002E49DB3B4931418A
:1059000003EA010010432BD049080B4053EA020779
:105910000CD04FF48023132E24EA010143FA06F43D
:1059200044EA01040CBF4FF000470027304B03EB63
:10593000C5052146D5E90045384622462B4600F0EC
:10594000CDF8CDE9000122462B46DDE9000100F04B
:10595000C3F803B0F0BD332E06DDB6F5806F42D03C
:105960001046194603B0F0BDAEF2134E4FF0FF31B2
:1059700021FA0EF10842F3D049080842D6D04FF080
:10598000804320EA010143FA0EFE4EEA0107CDE70B
:1059900021F000410143E3D0C3F31301144E41EA67
:1059A000000CCCF1000106EBC506D6E9006741EA20
:1059B0000C0C5C0C4FEA1C3C0CF4002C64044CEA0C
:1059C000040132463B4600F089F8CDE900013B4630
:1059D0003246DDE9000100F07FF821F0004444EA9E
:1059E000C5731946BEE700F079F8BBE7FFFF0F006B
:1059F00098CB030020F00040704700BF20F000402B
:105A0000B0F1FF4FACBF0020012070470048704745
:105A10000000C07F30F0004238B5034616D0B2F126
:105A2000FF4F0FD2B2F5000F0D4610D30446D20D32
:105A30002A44FE2A2EDC002A1DDD24F0FF4444EA1D
:105A4000C25038BD014600F0EBFC38BD38BD4FF008
:105A5000984100F0EDFD184A9542034607DBC0F37C
:105A6000C7520446193AE3E7144800F02BF81349EB
:105A700000F0DEFD38BD12F1160F13DA4CF2503291
:105A800095421946F0DD0E4800F01CF80C4900F074
:105A9000CFFD38BD19460A4800F014F8084900F057
:105AA000C7FD38BD193224F0FF4040EAC2504FF024
:105AB0004C5100F0BDFD38BDB03CFFFF6042A20D6F
:105AC000CAF2497101F0004120F0004008437047DC
:105AD00081F0004102E000BF83F0004330B54FEA9F
